{
	"Basic/intro.sol": {
		"DataType": {
			"abi": [
				{
					"inputs": [],
					"name": "favNum",
					"outputs": [
						{
							"internalType": "uint256",
							"name": "",
							"type": "uint256"
						}
					],
					"stateMutability": "view",
					"type": "function"
				},
				{
					"inputs": [],
					"name": "getFavNum",
					"outputs": [
						{
							"internalType": "uint256",
							"name": "",
							"type": "uint256"
						}
					],
					"stateMutability": "view",
					"type": "function"
				},
				{
					"inputs": [],
					"name": "hasFavNum",
					"outputs": [
						{
							"internalType": "bool",
							"name": "",
							"type": "bool"
						}
					],
					"stateMutability": "view",
					"type": "function"
				},
				{
					"inputs": [
						{
							"internalType": "uint256",
							"name": "_num",
							"type": "uint256"
						}
					],
					"name": "setFavNumber",
					"outputs": [],
					"stateMutability": "nonpayable",
					"type": "function"
				},
				{
					"inputs": [],
					"name": "toggle",
					"outputs": [],
					"stateMutability": "payable",
					"type": "function"
				}
			],
			"devdoc": {
				"kind": "dev",
				"methods": {},
				"version": 1
			},
			"evm": {
				"assembly": "    /* \"Basic/intro.sol\":56:452  contract DataType{... */\n  mstore(0x40, 0x80)\n  callvalue\n  dup1\n  iszero\n  tag_1\n  jumpi\n  0x00\n  dup1\n  revert\ntag_1:\n  pop\n  dataSize(sub_0)\n  dup1\n  dataOffset(sub_0)\n  0x00\n  codecopy\n  0x00\n  return\nstop\n\nsub_0: assembly {\n        /* \"Basic/intro.sol\":56:452  contract DataType{... */\n      mstore(0x40, 0x80)\n      jumpi(tag_1, lt(calldatasize, 0x04))\n      shr(0xe0, calldataload(0x00))\n      dup1\n      0x30215bb9\n      eq\n      tag_2\n      jumpi\n      dup1\n      0x3c8df652\n      eq\n      tag_3\n      jumpi\n      dup1\n      0x40a3d246\n      eq\n      tag_4\n      jumpi\n      dup1\n      0x72eab9c2\n      eq\n      tag_5\n      jumpi\n      dup1\n      0x7b656fba\n      eq\n      tag_6\n      jumpi\n    tag_1:\n      0x00\n      dup1\n      revert\n        /* \"Basic/intro.sol\":103:124  bool public hasFavNum */\n    tag_2:\n      callvalue\n      dup1\n      iszero\n      tag_7\n      jumpi\n      0x00\n      dup1\n      revert\n    tag_7:\n      pop\n      tag_8\n      tag_9\n      jump\t// in\n    tag_8:\n      mload(0x40)\n      tag_10\n      swap2\n      swap1\n      tag_11\n      jump\t// in\n    tag_10:\n      mload(0x40)\n      dup1\n      swap2\n      sub\n      swap1\n      return\n        /* \"Basic/intro.sol\":79:97  uint public favNum */\n    tag_3:\n      callvalue\n      dup1\n      iszero\n      tag_12\n      jumpi\n      0x00\n      dup1\n      revert\n    tag_12:\n      pop\n      tag_13\n      tag_14\n      jump\t// in\n    tag_13:\n      mload(0x40)\n      tag_15\n      swap2\n      swap1\n      tag_16\n      jump\t// in\n    tag_15:\n      mload(0x40)\n      dup1\n      swap2\n      sub\n      swap1\n      return\n        /* \"Basic/intro.sol\":313:449  function toggle() public payable {... */\n    tag_4:\n      tag_17\n      tag_18\n      jump\t// in\n    tag_17:\n      stop\n        /* \"Basic/intro.sol\":131:226  function setFavNumber(uint _num)public {... */\n    tag_5:\n      callvalue\n      dup1\n      iszero\n      tag_19\n      jumpi\n      0x00\n      dup1\n      revert\n    tag_19:\n      pop\n      tag_20\n      0x04\n      dup1\n      calldatasize\n      sub\n      dup2\n      add\n      swap1\n      tag_21\n      swap2\n      swap1\n      tag_22\n      jump\t// in\n    tag_21:\n      tag_23\n      jump\t// in\n    tag_20:\n      stop\n        /* \"Basic/intro.sol\":231:308  function getFavNum() public view returns (uint){... */\n    tag_6:\n      callvalue\n      dup1\n      iszero\n      tag_24\n      jumpi\n      0x00\n      dup1\n      revert\n    tag_24:\n      pop\n      tag_25\n      tag_26\n      jump\t// in\n    tag_25:\n      mload(0x40)\n      tag_27\n      swap2\n      swap1\n      tag_16\n      jump\t// in\n    tag_27:\n      mload(0x40)\n      dup1\n      swap2\n      sub\n      swap1\n      return\n        /* \"Basic/intro.sol\":103:124  bool public hasFavNum */\n    tag_9:\n      0x01\n      0x00\n      swap1\n      sload\n      swap1\n      0x0100\n      exp\n      swap1\n      div\n      0xff\n      and\n      dup2\n      jump\t// out\n        /* \"Basic/intro.sol\":79:97  uint public favNum */\n    tag_14:\n      sload(0x00)\n      dup2\n      jump\t// out\n        /* \"Basic/intro.sol\":313:449  function toggle() public payable {... */\n    tag_18:\n        /* \"Basic/intro.sol\":359:368  hasFavNum */\n      0x01\n      0x00\n      swap1\n      sload\n      swap1\n      0x0100\n      exp\n      swap1\n      div\n      0xff\n      and\n        /* \"Basic/intro.sol\":356:443  if(hasFavNum){... */\n      iszero\n      tag_29\n      jumpi\n        /* \"Basic/intro.sol\":396:405  hasFavNum */\n      0x01\n      0x00\n      swap1\n      sload\n      swap1\n      0x0100\n      exp\n      swap1\n      div\n      0xff\n      and\n        /* \"Basic/intro.sol\":395:405  !hasFavNum */\n      iszero\n        /* \"Basic/intro.sol\":383:392  hasFavNum */\n      0x01\n      0x00\n        /* \"Basic/intro.sol\":383:405  hasFavNum = !hasFavNum */\n      0x0100\n      exp\n      dup2\n      sload\n      dup2\n      0xff\n      mul\n      not\n      and\n      swap1\n      dup4\n      iszero\n      iszero\n      mul\n      or\n      swap1\n      sstore\n      pop\n        /* \"Basic/intro.sol\":426:432  favNum */\n      0x00\n        /* \"Basic/intro.sol\":419:432  delete favNum */\n      dup1\n      sstore\n        /* \"Basic/intro.sol\":356:443  if(hasFavNum){... */\n    tag_29:\n        /* \"Basic/intro.sol\":313:449  function toggle() public payable {... */\n      jump\t// out\n        /* \"Basic/intro.sol\":131:226  function setFavNumber(uint _num)public {... */\n    tag_23:\n        /* \"Basic/intro.sol\":189:193  _num */\n      dup1\n        /* \"Basic/intro.sol\":180:186  favNum */\n      0x00\n        /* \"Basic/intro.sol\":180:193  favNum = _num */\n      dup2\n      swap1\n      sstore\n      pop\n        /* \"Basic/intro.sol\":215:219  true */\n      0x01\n        /* \"Basic/intro.sol\":203:212  hasFavNum */\n      dup1\n      0x00\n        /* \"Basic/intro.sol\":203:219  hasFavNum = true */\n      0x0100\n      exp\n      dup2\n      sload\n      dup2\n      0xff\n      mul\n      not\n      and\n      swap1\n      dup4\n      iszero\n      iszero\n      mul\n      or\n      swap1\n      sstore\n      pop\n        /* \"Basic/intro.sol\":131:226  function setFavNumber(uint _num)public {... */\n      pop\n      jump\t// out\n        /* \"Basic/intro.sol\":231:308  function getFavNum() public view returns (uint){... */\n    tag_26:\n        /* \"Basic/intro.sol\":273:277  uint */\n      0x00\n        /* \"Basic/intro.sol\":295:301  favNum */\n      dup1\n      sload\n        /* \"Basic/intro.sol\":288:301  return favNum */\n      swap1\n      pop\n        /* \"Basic/intro.sol\":231:308  function getFavNum() public view returns (uint){... */\n      swap1\n      jump\t// out\n        /* \"#utility.yul\":7:146   */\n    tag_33:\n        /* \"#utility.yul\":53:58   */\n      0x00\n        /* \"#utility.yul\":91:97   */\n      dup2\n        /* \"#utility.yul\":78:98   */\n      calldataload\n        /* \"#utility.yul\":69:98   */\n      swap1\n      pop\n        /* \"#utility.yul\":107:140   */\n      tag_35\n        /* \"#utility.yul\":134:139   */\n      dup2\n        /* \"#utility.yul\":107:140   */\n      tag_36\n      jump\t// in\n    tag_35:\n        /* \"#utility.yul\":7:146   */\n      swap3\n      swap2\n      pop\n      pop\n      jump\t// out\n        /* \"#utility.yul\":152:481   */\n    tag_22:\n        /* \"#utility.yul\":211:217   */\n      0x00\n        /* \"#utility.yul\":260:262   */\n      0x20\n        /* \"#utility.yul\":248:257   */\n      dup3\n        /* \"#utility.yul\":239:246   */\n      dup5\n        /* \"#utility.yul\":235:258   */\n      sub\n        /* \"#utility.yul\":231:263   */\n      slt\n        /* \"#utility.yul\":228:347   */\n      iszero\n      tag_38\n      jumpi\n        /* \"#utility.yul\":266:345   */\n      tag_39\n      tag_40\n      jump\t// in\n    tag_39:\n        /* \"#utility.yul\":228:347   */\n    tag_38:\n        /* \"#utility.yul\":386:387   */\n      0x00\n        /* \"#utility.yul\":411:464   */\n      tag_41\n        /* \"#utility.yul\":456:463   */\n      dup5\n        /* \"#utility.yul\":447:453   */\n      dup3\n        /* \"#utility.yul\":436:445   */\n      dup6\n        /* \"#utility.yul\":432:454   */\n      add\n        /* \"#utility.yul\":411:464   */\n      tag_33\n      jump\t// in\n    tag_41:\n        /* \"#utility.yul\":401:464   */\n      swap2\n      pop\n        /* \"#utility.yul\":357:474   */\n      pop\n        /* \"#utility.yul\":152:481   */\n      swap3\n      swap2\n      pop\n      pop\n      jump\t// out\n        /* \"#utility.yul\":487:596   */\n    tag_42:\n        /* \"#utility.yul\":568:589   */\n      tag_44\n        /* \"#utility.yul\":583:588   */\n      dup2\n        /* \"#utility.yul\":568:589   */\n      tag_45\n      jump\t// in\n    tag_44:\n        /* \"#utility.yul\":563:566   */\n      dup3\n        /* \"#utility.yul\":556:590   */\n      mstore\n        /* \"#utility.yul\":487:596   */\n      pop\n      pop\n      jump\t// out\n        /* \"#utility.yul\":602:720   */\n    tag_46:\n        /* \"#utility.yul\":689:713   */\n      tag_48\n        /* \"#utility.yul\":707:712   */\n      dup2\n        /* \"#utility.yul\":689:713   */\n      tag_49\n      jump\t// in\n    tag_48:\n        /* \"#utility.yul\":684:687   */\n      dup3\n        /* \"#utility.yul\":677:714   */\n      mstore\n        /* \"#utility.yul\":602:720   */\n      pop\n      pop\n      jump\t// out\n        /* \"#utility.yul\":726:936   */\n    tag_11:\n        /* \"#utility.yul\":813:817   */\n      0x00\n        /* \"#utility.yul\":851:853   */\n      0x20\n        /* \"#utility.yul\":840:849   */\n      dup3\n        /* \"#utility.yul\":836:854   */\n      add\n        /* \"#utility.yul\":828:854   */\n      swap1\n      pop\n        /* \"#utility.yul\":864:929   */\n      tag_51\n        /* \"#utility.yul\":926:927   */\n      0x00\n        /* \"#utility.yul\":915:924   */\n      dup4\n        /* \"#utility.yul\":911:928   */\n      add\n        /* \"#utility.yul\":902:908   */\n      dup5\n        /* \"#utility.yul\":864:929   */\n      tag_42\n      jump\t// in\n    tag_51:\n        /* \"#utility.yul\":726:936   */\n      swap3\n      swap2\n      pop\n      pop\n      jump\t// out\n        /* \"#utility.yul\":942:1164   */\n    tag_16:\n        /* \"#utility.yul\":1035:1039   */\n      0x00\n        /* \"#utility.yul\":1073:1075   */\n      0x20\n        /* \"#utility.yul\":1062:1071   */\n      dup3\n        /* \"#utility.yul\":1058:1076   */\n      add\n        /* \"#utility.yul\":1050:1076   */\n      swap1\n      pop\n        /* \"#utility.yul\":1086:1157   */\n      tag_53\n        /* \"#utility.yul\":1154:1155   */\n      0x00\n        /* \"#utility.yul\":1143:1152   */\n      dup4\n        /* \"#utility.yul\":1139:1156   */\n      add\n        /* \"#utility.yul\":1130:1136   */\n      dup5\n        /* \"#utility.yul\":1086:1157   */\n      tag_46\n      jump\t// in\n    tag_53:\n        /* \"#utility.yul\":942:1164   */\n      swap3\n      swap2\n      pop\n      pop\n      jump\t// out\n        /* \"#utility.yul\":1251:1341   */\n    tag_45:\n        /* \"#utility.yul\":1285:1292   */\n      0x00\n        /* \"#utility.yul\":1328:1333   */\n      dup2\n        /* \"#utility.yul\":1321:1334   */\n      iszero\n        /* \"#utility.yul\":1314:1335   */\n      iszero\n        /* \"#utility.yul\":1303:1335   */\n      swap1\n      pop\n        /* \"#utility.yul\":1251:1341   */\n      swap2\n      swap1\n      pop\n      jump\t// out\n        /* \"#utility.yul\":1347:1424   */\n    tag_49:\n        /* \"#utility.yul\":1384:1391   */\n      0x00\n        /* \"#utility.yul\":1413:1418   */\n      dup2\n        /* \"#utility.yul\":1402:1418   */\n      swap1\n      pop\n        /* \"#utility.yul\":1347:1424   */\n      swap2\n      swap1\n      pop\n      jump\t// out\n        /* \"#utility.yul\":1553:1670   */\n    tag_40:\n        /* \"#utility.yul\":1662:1663   */\n      0x00\n        /* \"#utility.yul\":1659:1660   */\n      dup1\n        /* \"#utility.yul\":1652:1664   */\n      revert\n        /* \"#utility.yul\":1676:1798   */\n    tag_36:\n        /* \"#utility.yul\":1749:1773   */\n      tag_62\n        /* \"#utility.yul\":1767:1772   */\n      dup2\n        /* \"#utility.yul\":1749:1773   */\n      tag_49\n      jump\t// in\n    tag_62:\n        /* \"#utility.yul\":1742:1747   */\n      dup2\n        /* \"#utility.yul\":1739:1774   */\n      eq\n        /* \"#utility.yul\":1729:1792   */\n      tag_63\n      jumpi\n        /* \"#utility.yul\":1788:1789   */\n      0x00\n        /* \"#utility.yul\":1785:1786   */\n      dup1\n        /* \"#utility.yul\":1778:1790   */\n      revert\n        /* \"#utility.yul\":1729:1792   */\n    tag_63:\n        /* \"#utility.yul\":1676:1798   */\n      pop\n      jump\t// out\n\n    auxdata: 0xa26469706673582212200ab4e5e72505d2e1795cc20af8d8581d1b610016c9a67e2903cd9f6899e7eed164736f6c63430008070033\n}\n",
				"bytecode": {
					"linkReferences": {},
					"object": "608060405234801561001057600080fd5b5061028d806100206000396000f3fe60806040526004361061004a5760003560e01c806330215bb91461004f5780633c8df6521461007a57806340a3d246146100a557806372eab9c2146100af5780637b656fba146100d8575b600080fd5b34801561005b57600080fd5b50610064610103565b60405161007191906101ef565b60405180910390f35b34801561008657600080fd5b5061008f610116565b60405161009c919061020a565b60405180910390f35b6100ad61011c565b005b3480156100bb57600080fd5b506100d660048036038101906100d191906101a4565b610162565b005b3480156100e457600080fd5b506100ed610186565b6040516100fa919061020a565b60405180910390f35b600160009054906101000a900460ff1681565b60005481565b600160009054906101000a900460ff161561016057600160009054906101000a900460ff1615600160006101000a81548160ff021916908315150217905550600080555b565b8060008190555060018060006101000a81548160ff02191690831515021790555050565b60008054905090565b60008135905061019e81610240565b92915050565b6000602082840312156101ba576101b961023b565b5b60006101c88482850161018f565b91505092915050565b6101da81610225565b82525050565b6101e981610231565b82525050565b600060208201905061020460008301846101d1565b92915050565b600060208201905061021f60008301846101e0565b92915050565b60008115159050919050565b6000819050919050565b600080fd5b61024981610231565b811461025457600080fd5b5056fea26469706673582212200ab4e5e72505d2e1795cc20af8d8581d1b610016c9a67e2903cd9f6899e7eed164736f6c63430008070033",
					"opcodes": "PUSH1 0x80 PUSH1 0x40 MSTORE CALLVALUE DUP1 ISZERO PUSH2 0x10 JUMPI PUSH1 0x0 DUP1 REVERT JUMPDEST POP PUSH2 0x28D DUP1 PUSH2 0x20 PUSH1 0x0 CODECOPY PUSH1 0x0 RETURN INVALID PUSH1 0x80 PUSH1 0x40 MSTORE PUSH1 0x4 CALLDATASIZE LT PUSH2 0x4A JUMPI PUSH1 0x0 CALLDATALOAD PUSH1 0xE0 SHR DUP1 PUSH4 0x30215BB9 EQ PUSH2 0x4F JUMPI DUP1 PUSH4 0x3C8DF652 EQ PUSH2 0x7A JUMPI DUP1 PUSH4 0x40A3D246 EQ PUSH2 0xA5 JUMPI DUP1 PUSH4 0x72EAB9C2 EQ PUSH2 0xAF JUMPI DUP1 PUSH4 0x7B656FBA EQ PUSH2 0xD8 JUMPI JUMPDEST PUSH1 0x0 DUP1 REVERT JUMPDEST CALLVALUE DUP1 ISZERO PUSH2 0x5B JUMPI PUSH1 0x0 DUP1 REVERT JUMPDEST POP PUSH2 0x64 PUSH2 0x103 JUMP JUMPDEST PUSH1 0x40 MLOAD PUSH2 0x71 SWAP2 SWAP1 PUSH2 0x1EF JUMP JUMPDEST PUSH1 0x40 MLOAD DUP1 SWAP2 SUB SWAP1 RETURN JUMPDEST CALLVALUE DUP1 ISZERO PUSH2 0x86 JUMPI PUSH1 0x0 DUP1 REVERT JUMPDEST POP PUSH2 0x8F PUSH2 0x116 JUMP JUMPDEST PUSH1 0x40 MLOAD PUSH2 0x9C SWAP2 SWAP1 PUSH2 0x20A JUMP JUMPDEST PUSH1 0x40 MLOAD DUP1 SWAP2 SUB SWAP1 RETURN JUMPDEST PUSH2 0xAD PUSH2 0x11C JUMP JUMPDEST STOP JUMPDEST CALLVALUE DUP1 ISZERO PUSH2 0xBB JUMPI PUSH1 0x0 DUP1 REVERT JUMPDEST POP PUSH2 0xD6 PUSH1 0x4 DUP1 CALLDATASIZE SUB DUP2 ADD SWAP1 PUSH2 0xD1 SWAP2 SWAP1 PUSH2 0x1A4 JUMP JUMPDEST PUSH2 0x162 JUMP JUMPDEST STOP JUMPDEST CALLVALUE DUP1 ISZERO PUSH2 0xE4 JUMPI PUSH1 0x0 DUP1 REVERT JUMPDEST POP PUSH2 0xED PUSH2 0x186 JUMP JUMPDEST PUSH1 0x40 MLOAD PUSH2 0xFA SWAP2 SWAP1 PUSH2 0x20A JUMP JUMPDEST PUSH1 0x40 MLOAD DUP1 SWAP2 SUB SWAP1 RETURN JUMPDEST PUSH1 0x1 PUSH1 0x0 SWAP1 SLOAD SWAP1 PUSH2 0x100 EXP SWAP1 DIV PUSH1 0xFF AND DUP2 JUMP JUMPDEST PUSH1 0x0 SLOAD DUP2 JUMP JUMPDEST PUSH1 0x1 PUSH1 0x0 SWAP1 SLOAD SWAP1 PUSH2 0x100 EXP SWAP1 DIV PUSH1 0xFF AND ISZERO PUSH2 0x160 JUMPI PUSH1 0x1 PUSH1 0x0 SWAP1 SLOAD SWAP1 PUSH2 0x100 EXP SWAP1 DIV PUSH1 0xFF AND ISZERO PUSH1 0x1 PUSH1 0x0 PUSH2 0x100 EXP DUP2 SLOAD DUP2 PUSH1 0xFF MUL NOT AND SWAP1 DUP4 ISZERO ISZERO MUL OR SWAP1 SSTORE POP PUSH1 0x0 DUP1 SSTORE JUMPDEST JUMP JUMPDEST DUP1 PUSH1 0x0 DUP2 SWAP1 SSTORE POP PUSH1 0x1 DUP1 PUSH1 0x0 PUSH2 0x100 EXP DUP2 SLOAD DUP2 PUSH1 0xFF MUL NOT AND SWAP1 DUP4 ISZERO ISZERO MUL OR SWAP1 SSTORE POP POP JUMP JUMPDEST PUSH1 0x0 DUP1 SLOAD SWAP1 POP SWAP1 JUMP JUMPDEST PUSH1 0x0 DUP2 CALLDATALOAD SWAP1 POP PUSH2 0x19E DUP2 PUSH2 0x240 JUMP JUMPDEST SWAP3 SWAP2 POP POP JUMP JUMPDEST PUSH1 0x0 PUSH1 0x20 DUP3 DUP5 SUB SLT ISZERO PUSH2 0x1BA JUMPI PUSH2 0x1B9 PUSH2 0x23B JUMP JUMPDEST JUMPDEST PUSH1 0x0 PUSH2 0x1C8 DUP5 DUP3 DUP6 ADD PUSH2 0x18F JUMP JUMPDEST SWAP2 POP POP SWAP3 SWAP2 POP POP JUMP JUMPDEST PUSH2 0x1DA DUP2 PUSH2 0x225 JUMP JUMPDEST DUP3 MSTORE POP POP JUMP JUMPDEST PUSH2 0x1E9 DUP2 PUSH2 0x231 JUMP JUMPDEST DUP3 MSTORE POP POP JUMP JUMPDEST PUSH1 0x0 PUSH1 0x20 DUP3 ADD SWAP1 POP PUSH2 0x204 PUSH1 0x0 DUP4 ADD DUP5 PUSH2 0x1D1 JUMP JUMPDEST SWAP3 SWAP2 POP POP JUMP JUMPDEST PUSH1 0x0 PUSH1 0x20 DUP3 ADD SWAP1 POP PUSH2 0x21F PUSH1 0x0 DUP4 ADD DUP5 PUSH2 0x1E0 JUMP JUMPDEST SWAP3 SWAP2 POP POP JUMP JUMPDEST PUSH1 0x0 DUP2 ISZERO ISZERO SWAP1 POP SWAP2 SWAP1 POP JUMP JUMPDEST PUSH1 0x0 DUP2 SWAP1 POP SWAP2 SWAP1 POP JUMP JUMPDEST PUSH1 0x0 DUP1 REVERT JUMPDEST PUSH2 0x249 DUP2 PUSH2 0x231 JUMP JUMPDEST DUP2 EQ PUSH2 0x254 JUMPI PUSH1 0x0 DUP1 REVERT JUMPDEST POP JUMP INVALID LOG2 PUSH5 0x6970667358 0x22 SLT KECCAK256 EXP 0xB4 0xE5 0xE7 0x25 SDIV 0xD2 0xE1 PUSH26 0x5CC20AF8D8581D1B610016C9A67E2903CD9F6899E7EED164736F PUSH13 0x63430008070033000000000000 "
				},
				"gasEstimates": {
					"creation": {
						"codeDepositCost": "130600",
						"executionCost": "177",
						"totalCost": "130777"
					},
					"external": {
						"favNum()": "2429",
						"getFavNum()": "2503",
						"hasFavNum()": "2449",
						"setFavNumber(uint256)": "46831",
						"toggle()": "33710"
					}
				},
				"methodIdentifiers": {
					"favNum()": "3c8df652",
					"getFavNum()": "7b656fba",
					"hasFavNum()": "30215bb9",
					"setFavNumber(uint256)": "72eab9c2",
					"toggle()": "40a3d246"
				}
			},
			"storageLayout": {
				"storage": [
					{
						"astId": 3,
						"contract": "Basic/intro.sol:DataType",
						"label": "favNum",
						"offset": 0,
						"slot": "0",
						"type": "t_uint256"
					},
					{
						"astId": 5,
						"contract": "Basic/intro.sol:DataType",
						"label": "hasFavNum",
						"offset": 0,
						"slot": "1",
						"type": "t_bool"
					}
				],
				"types": {
					"t_bool": {
						"encoding": "inplace",
						"label": "bool",
						"numberOfBytes": "1"
					},
					"t_uint256": {
						"encoding": "inplace",
						"label": "uint256",
						"numberOfBytes": "32"
					}
				}
			},
			"userdoc": {
				"kind": "user",
				"methods": {},
				"version": 1
			}
		}
	}
}